{
  "address": "0x5FbDB2315678afecb367f032d93F642f64180aa3",
  "abi": [
    {
      "inputs": [],
      "stateMutability": "nonpayable",
      "type": "constructor"
    },
    {
      "anonymous": false,
      "inputs": [
        {
          "indexed": true,
          "internalType": "address",
          "name": "account",
          "type": "address"
        },
        {
          "indexed": true,
          "internalType": "uint256",
          "name": "userId",
          "type": "uint256"
        },
        {
          "indexed": false,
          "internalType": "string",
          "name": "message",
          "type": "string"
        },
        {
          "indexed": false,
          "internalType": "bool",
          "name": "completed",
          "type": "bool"
        }
      ],
      "name": "ToDoEvent",
      "type": "event"
    },
    {
      "stateMutability": "payable",
      "type": "fallback"
    },
    {
      "inputs": [],
      "name": "_idUser",
      "outputs": [
        {
          "internalType": "uint256",
          "name": "",
          "type": "uint256"
        }
      ],
      "stateMutability": "view",
      "type": "function"
    },
    {
      "inputs": [
        {
          "internalType": "string",
          "name": "_message",
          "type": "string"
        }
      ],
      "name": "createList",
      "outputs": [],
      "stateMutability": "nonpayable",
      "type": "function"
    },
    {
      "inputs": [
        {
          "internalType": "uint256",
          "name": "",
          "type": "uint256"
        }
      ],
      "name": "creators",
      "outputs": [
        {
          "internalType": "address",
          "name": "",
          "type": "address"
        }
      ],
      "stateMutability": "view",
      "type": "function"
    },
    {
      "inputs": [],
      "name": "getAddress",
      "outputs": [
        {
          "internalType": "address[]",
          "name": "",
          "type": "address[]"
        }
      ],
      "stateMutability": "view",
      "type": "function"
    },
    {
      "inputs": [
        {
          "internalType": "address",
          "name": "_address",
          "type": "address"
        }
      ],
      "name": "getCreatorData",
      "outputs": [
        {
          "internalType": "address",
          "name": "",
          "type": "address"
        },
        {
          "internalType": "uint256",
          "name": "",
          "type": "uint256"
        },
        {
          "internalType": "string",
          "name": "",
          "type": "string"
        },
        {
          "internalType": "bool",
          "name": "",
          "type": "bool"
        }
      ],
      "stateMutability": "view",
      "type": "function"
    },
    {
      "inputs": [],
      "name": "getMessage",
      "outputs": [
        {
          "internalType": "string[]",
          "name": "",
          "type": "string[]"
        }
      ],
      "stateMutability": "view",
      "type": "function"
    },
    {
      "inputs": [
        {
          "internalType": "uint256",
          "name": "",
          "type": "uint256"
        }
      ],
      "name": "message",
      "outputs": [
        {
          "internalType": "string",
          "name": "",
          "type": "string"
        }
      ],
      "stateMutability": "view",
      "type": "function"
    },
    {
      "inputs": [
        {
          "internalType": "uint256",
          "name": "",
          "type": "uint256"
        }
      ],
      "name": "messageId",
      "outputs": [
        {
          "internalType": "uint256",
          "name": "",
          "type": "uint256"
        }
      ],
      "stateMutability": "view",
      "type": "function"
    },
    {
      "inputs": [],
      "name": "ownerOfContract",
      "outputs": [
        {
          "internalType": "address",
          "name": "",
          "type": "address"
        }
      ],
      "stateMutability": "view",
      "type": "function"
    },
    {
      "inputs": [
        {
          "internalType": "address",
          "name": "",
          "type": "address"
        }
      ],
      "name": "toDoListApps",
      "outputs": [
        {
          "internalType": "address",
          "name": "account",
          "type": "address"
        },
        {
          "internalType": "uint256",
          "name": "userId",
          "type": "uint256"
        },
        {
          "internalType": "string",
          "name": "message",
          "type": "string"
        },
        {
          "internalType": "bool",
          "name": "completed",
          "type": "bool"
        }
      ],
      "stateMutability": "view",
      "type": "function"
    },
    {
      "inputs": [
        {
          "internalType": "address",
          "name": "_creator",
          "type": "address"
        }
      ],
      "name": "toggle",
      "outputs": [],
      "stateMutability": "nonpayable",
      "type": "function"
    },
    {
      "stateMutability": "payable",
      "type": "receive"
    }
  ],
  "transactionHash": "0xdb003f4e7fd010ac90ab639ad4ec19c1b8d68ca307234a82f9309aacaf8ddb17",
  "args": [],
  "numDeployments": 1,
  "solcInputHash": "fa39d5c48851a4190414c9c4c9efa85b",
  "bytecode": "0x608060405234801561001057600080fd5b5033600160006101000a81548173ffffffffffffffffffffffffffffffffffffffff021916908373ffffffffffffffffffffffffffffffffffffffff1602179055506113d4806100616000396000f3fe6080604052600436106100a05760003560e01c806374310d081161006457806374310d08146101a557806394432cc5146101e5578063b8dcc68f14610210578063cd53d08e14610239578063ce6d41de14610276578063d1e8507b146102a1576100a7565b80630d64e697146100a957806321e47d46146100e957806338cc483114610126578063468229ae14610151578063588f9acc1461017c576100a7565b366100a757005b005b3480156100b557600080fd5b506100d060048036038101906100cb9190610ae6565b6102de565b6040516100e09493929190610be6565b60405180910390f35b3480156100f557600080fd5b50610110600480360381019061010b9190610c5e565b610463565b60405161011d9190610c8b565b60405180910390f35b34801561013257600080fd5b5061013b610487565b6040516101489190610d64565b60405180910390f35b34801561015d57600080fd5b50610166610515565b6040516101739190610d86565b60405180910390f35b34801561018857600080fd5b506101a3600480360381019061019e9190610ae6565b61053b565b005b3480156101b157600080fd5b506101cc60048036038101906101c79190610ae6565b6105b0565b6040516101dc9493929190610be6565b60405180910390f35b3480156101f157600080fd5b506101fa610695565b6040516102079190610c8b565b60405180910390f35b34801561021c57600080fd5b5061023760048036038101906102329190610e06565b61069b565b005b34801561024557600080fd5b50610260600480360381019061025b9190610c5e565b6108a1565b60405161026d9190610d86565b60405180910390f35b34801561028257600080fd5b5061028b6108e0565b6040516102989190610f5f565b60405180910390f35b3480156102ad57600080fd5b506102c860048036038101906102c39190610c5e565b6109b9565b6040516102d59190610f81565b60405180910390f35b6000806060600080600560008773ffffffffffffffffffffffffffffffffffffffff1673ffffffffffffffffffffffffffffffffffffffff1681526020019081526020016000206040518060800160405290816000820160009054906101000a900473ffffffffffffffffffffffffffffffffffffffff1673ffffffffffffffffffffffffffffffffffffffff1673ffffffffffffffffffffffffffffffffffffffff168152602001600182015481526020016002820180546103a090610fd2565b80601f01602080910402602001604051908101604052809291908181526020018280546103cc90610fd2565b80156104195780601f106103ee57610100808354040283529160200191610419565b820191906000526020600020905b8154815290600101906020018083116103fc57829003601f168201915b505050505081526020016003820160009054906101000a900460ff161515151581525050905080600001518160200151826040015183606001519450945094509450509193509193565b6004818154811061047357600080fd5b906000526020600020016000915090505481565b6060600280548060200260200160405190810160405280929190818152602001828054801561050b57602002820191906000526020600020905b8160009054906101000a900473ffffffffffffffffffffffffffffffffffffffff1673ffffffffffffffffffffffffffffffffffffffff16815260200190600101908083116104c1575b5050505050905090565b600160009054906101000a900473ffffffffffffffffffffffffffffffffffffffff1681565b6000600560008373ffffffffffffffffffffffffffffffffffffffff1673ffffffffffffffffffffffffffffffffffffffff16815260200190815260200160002090508060030160009054906101000a900460ff16158160030160006101000a81548160ff0219169083151502179055505050565b60056020528060005260406000206000915090508060000160009054906101000a900473ffffffffffffffffffffffffffffffffffffffff16908060010154908060020180546105ff90610fd2565b80601f016020809104026020016040519081016040528092919081815260200182805461062b90610fd2565b80156106785780601f1061064d57610100808354040283529160200191610678565b820191906000526020600020905b81548152906001019060200180831161065b57829003601f168201915b5050505050908060030160009054906101000a900460ff16905084565b60005481565b6106a3610a65565b6000805490506000600560003373ffffffffffffffffffffffffffffffffffffffff1673ffffffffffffffffffffffffffffffffffffffff1681526020019081526020016000209050338160000160006101000a81548173ffffffffffffffffffffffffffffffffffffffff021916908373ffffffffffffffffffffffffffffffffffffffff16021790555083838260020191826107429291906111e9565b5060008160030160006101000a81548160ff0219169083151502179055508181600101819055506002339080600181540180825580915050600190039060005260206000200160009091909190916101000a81548173ffffffffffffffffffffffffffffffffffffffff021916908373ffffffffffffffffffffffffffffffffffffffff16021790555060038484909180600181540180825580915050600190039060005260206000200160009091929091929091929091925091826108099291906111e9565b50600482908060018154018082558091505060019003906000526020600020016000909190919091505580600101543373ffffffffffffffffffffffffffffffffffffffff167f97cb199a6fede85e8843b14a3b82273a76130b0e671f8803ce27aa90d52ee11486868560030160009054906101000a900460ff16604051610893939291906112f5565b60405180910390a350505050565b600281815481106108b157600080fd5b906000526020600020016000915054906101000a900473ffffffffffffffffffffffffffffffffffffffff1681565b60606003805480602002602001604051908101604052809291908181526020016000905b828210156109b057838290600052602060002001805461092390610fd2565b80601f016020809104026020016040519081016040528092919081815260200182805461094f90610fd2565b801561099c5780601f106109715761010080835404028352916020019161099c565b820191906000526020600020905b81548152906001019060200180831161097f57829003601f168201915b505050505081526020019060010190610904565b50505050905090565b600381815481106109c957600080fd5b9060005260206000200160009150905080546109e490610fd2565b80601f0160208091040260200160405190810160405280929190818152602001828054610a1090610fd2565b8015610a5d5780601f10610a3257610100808354040283529160200191610a5d565b820191906000526020600020905b815481529060010190602001808311610a4057829003601f168201915b505050505081565b600080815480929190610a7790611356565b9190505550565b600080fd5b600080fd5b600073ffffffffffffffffffffffffffffffffffffffff82169050919050565b6000610ab382610a88565b9050919050565b610ac381610aa8565b8114610ace57600080fd5b50565b600081359050610ae081610aba565b92915050565b600060208284031215610afc57610afb610a7e565b5b6000610b0a84828501610ad1565b91505092915050565b610b1c81610aa8565b82525050565b6000819050919050565b610b3581610b22565b82525050565b600081519050919050565b600082825260208201905092915050565b60005b83811015610b75578082015181840152602081019050610b5a565b60008484015250505050565b6000601f19601f8301169050919050565b6000610b9d82610b3b565b610ba78185610b46565b9350610bb7818560208601610b57565b610bc081610b81565b840191505092915050565b60008115159050919050565b610be081610bcb565b82525050565b6000608082019050610bfb6000830187610b13565b610c086020830186610b2c565b8181036040830152610c1a8185610b92565b9050610c296060830184610bd7565b95945050505050565b610c3b81610b22565b8114610c4657600080fd5b50565b600081359050610c5881610c32565b92915050565b600060208284031215610c7457610c73610a7e565b5b6000610c8284828501610c49565b91505092915050565b6000602082019050610ca06000830184610b2c565b92915050565b600081519050919050565b600082825260208201905092915050565b6000819050602082019050919050565b610cdb81610aa8565b82525050565b6000610ced8383610cd2565b60208301905092915050565b6000602082019050919050565b6000610d1182610ca6565b610d1b8185610cb1565b9350610d2683610cc2565b8060005b83811015610d57578151610d3e8882610ce1565b9750610d4983610cf9565b925050600181019050610d2a565b5085935050505092915050565b60006020820190508181036000830152610d7e8184610d06565b905092915050565b6000602082019050610d9b6000830184610b13565b92915050565b600080fd5b600080fd5b600080fd5b60008083601f840112610dc657610dc5610da1565b5b8235905067ffffffffffffffff811115610de357610de2610da6565b5b602083019150836001820283011115610dff57610dfe610dab565b5b9250929050565b60008060208385031215610e1d57610e1c610a7e565b5b600083013567ffffffffffffffff811115610e3b57610e3a610a83565b5b610e4785828601610db0565b92509250509250929050565b600081519050919050565b600082825260208201905092915050565b6000819050602082019050919050565b600082825260208201905092915050565b6000610e9b82610b3b565b610ea58185610e7f565b9350610eb5818560208601610b57565b610ebe81610b81565b840191505092915050565b6000610ed58383610e90565b905092915050565b6000602082019050919050565b6000610ef582610e53565b610eff8185610e5e565b935083602082028501610f1185610e6f565b8060005b85811015610f4d5784840389528151610f2e8582610ec9565b9450610f3983610edd565b925060208a01995050600181019050610f15565b50829750879550505050505092915050565b60006020820190508181036000830152610f798184610eea565b905092915050565b60006020820190508181036000830152610f9b8184610b92565b905092915050565b7f4e487b7100000000000000000000000000000000000000000000000000000000600052602260045260246000fd5b60006002820490506001821680610fea57607f821691505b602082108103610ffd57610ffc610fa3565b5b50919050565b600082905092915050565b7f4e487b7100000000000000000000000000000000000000000000000000000000600052604160045260246000fd5b60008190508160005260206000209050919050565b60006020601f8301049050919050565b600082821b905092915050565b60006008830261109f7fffffffffffffffffffffffffffffffffffffffffffffffffffffffffffffffff82611062565b6110a98683611062565b95508019841693508086168417925050509392505050565b6000819050919050565b60006110e66110e16110dc84610b22565b6110c1565b610b22565b9050919050565b6000819050919050565b611100836110cb565b61111461110c826110ed565b84845461106f565b825550505050565b600090565b61112961111c565b6111348184846110f7565b505050565b5b818110156111585761114d600082611121565b60018101905061113a565b5050565b601f82111561119d5761116e8161103d565b61117784611052565b81016020851015611186578190505b61119a61119285611052565b830182611139565b50505b505050565b600082821c905092915050565b60006111c0600019846008026111a2565b1980831691505092915050565b60006111d983836111af565b9150826002028217905092915050565b6111f38383611003565b67ffffffffffffffff81111561120c5761120b61100e565b5b6112168254610fd2565b61122182828561115c565b6000601f831160018114611250576000841561123e578287013590505b61124885826111cd565b8655506112b0565b601f19841661125e8661103d565b60005b8281101561128657848901358255600182019150602085019450602081019050611261565b868310156112a3578489013561129f601f8916826111af565b8355505b6001600288020188555050505b50505050505050565b82818337600083830152505050565b60006112d48385610b46565b93506112e18385846112b9565b6112ea83610b81565b840190509392505050565b600060408201905081810360008301526113108185876112c8565b905061131f6020830184610bd7565b949350505050565b7f4e487b7100000000000000000000000000000000000000000000000000000000600052601160045260246000fd5b600061136182610b22565b91507fffffffffffffffffffffffffffffffffffffffffffffffffffffffffffffffff820361139357611392611327565b5b60018201905091905056fea2646970667358221220f9f9630d07cd5dcd2107a7f3c3259c087dd1aaa7112fdaa3d030dfc394afd97564736f6c63430008110033",
  "devdoc": {
    "kind": "dev",
    "methods": {},
    "version": 1
  },
  "userdoc": {
    "kind": "user",
    "methods": {},
    "version": 1
  },
  "storageLayout": {
    "storage": [
      {
        "astId": 3,
        "contract": "contracts/ToDoList.sol:ToDoList",
        "label": "_idUser",
        "offset": 0,
        "slot": "0",
        "type": "t_uint256"
      },
      {
        "astId": 5,
        "contract": "contracts/ToDoList.sol:ToDoList",
        "label": "ownerOfContract",
        "offset": 0,
        "slot": "1",
        "type": "t_address"
      },
      {
        "astId": 8,
        "contract": "contracts/ToDoList.sol:ToDoList",
        "label": "creators",
        "offset": 0,
        "slot": "2",
        "type": "t_array(t_address)dyn_storage"
      },
      {
        "astId": 11,
        "contract": "contracts/ToDoList.sol:ToDoList",
        "label": "message",
        "offset": 0,
        "slot": "3",
        "type": "t_array(t_string_storage)dyn_storage"
      },
      {
        "astId": 14,
        "contract": "contracts/ToDoList.sol:ToDoList",
        "label": "messageId",
        "offset": 0,
        "slot": "4",
        "type": "t_array(t_uint256)dyn_storage"
      },
      {
        "astId": 38,
        "contract": "contracts/ToDoList.sol:ToDoList",
        "label": "toDoListApps",
        "offset": 0,
        "slot": "5",
        "type": "t_mapping(t_address,t_struct(ToDoListApp)23_storage)"
      }
    ],
    "types": {
      "t_address": {
        "encoding": "inplace",
        "label": "address",
        "numberOfBytes": "20"
      },
      "t_array(t_address)dyn_storage": {
        "base": "t_address",
        "encoding": "dynamic_array",
        "label": "address[]",
        "numberOfBytes": "32"
      },
      "t_array(t_string_storage)dyn_storage": {
        "base": "t_string_storage",
        "encoding": "dynamic_array",
        "label": "string[]",
        "numberOfBytes": "32"
      },
      "t_array(t_uint256)dyn_storage": {
        "base": "t_uint256",
        "encoding": "dynamic_array",
        "label": "uint256[]",
        "numberOfBytes": "32"
      },
      "t_bool": {
        "encoding": "inplace",
        "label": "bool",
        "numberOfBytes": "1"
      },
      "t_mapping(t_address,t_struct(ToDoListApp)23_storage)": {
        "encoding": "mapping",
        "key": "t_address",
        "label": "mapping(address => struct ToDoList.ToDoListApp)",
        "numberOfBytes": "32",
        "value": "t_struct(ToDoListApp)23_storage"
      },
      "t_string_storage": {
        "encoding": "bytes",
        "label": "string",
        "numberOfBytes": "32"
      },
      "t_struct(ToDoListApp)23_storage": {
        "encoding": "inplace",
        "label": "struct ToDoList.ToDoListApp",
        "members": [
          {
            "astId": 16,
            "contract": "contracts/ToDoList.sol:ToDoList",
            "label": "account",
            "offset": 0,
            "slot": "0",
            "type": "t_address"
          },
          {
            "astId": 18,
            "contract": "contracts/ToDoList.sol:ToDoList",
            "label": "userId",
            "offset": 0,
            "slot": "1",
            "type": "t_uint256"
          },
          {
            "astId": 20,
            "contract": "contracts/ToDoList.sol:ToDoList",
            "label": "message",
            "offset": 0,
            "slot": "2",
            "type": "t_string_storage"
          },
          {
            "astId": 22,
            "contract": "contracts/ToDoList.sol:ToDoList",
            "label": "completed",
            "offset": 0,
            "slot": "3",
            "type": "t_bool"
          }
        ],
        "numberOfBytes": "128"
      },
      "t_uint256": {
        "encoding": "inplace",
        "label": "uint256",
        "numberOfBytes": "32"
      }
    }
  }
}